{"abi":[{"type":"function","name":"verify","inputs":[{"name":"proof","type":"bytes","internalType":"bytes"},{"name":"publicInputs","type":"bytes32[]","internalType":"bytes32[]"}],"outputs":[{"name":"","type":"bool","internalType":"bool"}],"stateMutability":"view"},{"type":"error","name":"ProofLengthWrong","inputs":[]},{"type":"error","name":"PublicInputsLengthWrong","inputs":[]},{"type":"error","name":"ShpleminiFailed","inputs":[]},{"type":"error","name":"SumcheckFailed","inputs":[]}],"bytecode":{"object":"0x60e0604052348015600e575f5ffd5b5062010000608052601060a052600360c05260805160a05160c05161544f6100585f395f61057101525f818161061d01528181610bf60152610c9201525f61051a015261544f5ff3fe608060405234801561000f575f5ffd5b5060043610610029575f3560e01c8063ea50d0e41461002d575b5f5ffd5b61004061003b366004615058565b610054565b604051901515815260200160405180910390f35b5f6100626101b86020615134565b8414610081576040516376ba560560e11b815260040160405180910390fd5b5f61008a610198565b90505f61009787876101ad565b604083015190915084146100be5760405163fa06659360e01b815260040160405180910390fd5b5f6100d5828787865f015187604001516001610455565b90506101238686808060200260200160405190810160405280939291908181526020018383602002808284375f92019190915250508451606081015160809091015190925090506001610504565b815160a001525f6101348383610615565b905080610154576040516313f8744360e31b815260040160405180910390fd5b5f610160848685610716565b905080610180576040516352ec174560e11b815260040160405180910390fd5b81801561018a5750805b9a9950505050505050505050565b6101a061483c565b6101a8610f8a565b905090565b6101b5614bba565b6101ca6101c560805f858761514b565b61186e565b81526101de6101c56101006080858761514b565b60208201526101f66101c5610180610100858761514b565b604082015261020e6101c5610200610180858761514b565b60a08201526102266101c5610280610200858761514b565b60c082015261023e6101c5610300610280858761514b565b60608201526102566101c5610380610300858761514b565b60e082015261026e6101c5610400610380858761514b565b60808201526104005f5b601c811015610305575f5b60088110156102fc576102af86848761029d826020615172565b926102aa9392919061514b565b611962565b84610100015183601c81106102c6576102c6615185565b602002015182600881106102dc576102dc615185565b6020020181815250506020836102f29190615172565b9250600101610283565b50600101610278565b505f5b60288110156103595761032285838661029d826020615172565b836101200151826028811061033957610339615185565b60200201818152505060208261034f9190615172565b9150600101610308565b505f5b6103686001601c615199565b8110156103be5761038d858386610380826080615172565b926101c59392919061514b565b83610140015182601b81106103a4576103a4615185565b60200201526103b4608083615172565b915060010161035c565b505f5b601c811015610412576103db85838661029d826020615172565b83610160015182601c81106103f2576103f2615185565b6020020181815250506020826104089190615172565b91506001016103c1565b50610424848285610380826080615172565b610180830152610435816080615172565b9050610448848285610380826080615172565b6101a08301525092915050565b61045d614dad565b5f61046d888888888888876119be565b908352905061047c8189611a3f565b6020840191909152905061048f81611bda565b604084019190915290506104a38882611c3b565b606084019190915290506104b78882611d0f565b608084019190915290506104cb8882611d9a565b60a084019190915290506104df8882611f08565b60c084019190915290506104f38882611f7a565b5060e0830152509695505050505050565b5f6001808261054d866105488961054361053e8a7f0000000000000000000000000000000000000000000000000000000000000000615172565b611fd1565b611fef565b612008565b90505f61056b876105668a61054361053e8b6001615172565b612021565b90505f5b7f00000000000000000000000000000000000000000000000000000000000000008110156105fd575f6105ba8b83815181106105ad576105ad615185565b6020026020010151611fd1565b90506105ca866105438684612008565b95506105da856105438584612008565b94506105e6848b612008565b93506105f2838b612021565b92505060010161056f565b506106088484612050565b9998505050505050505050565b5f806001815b7f00000000000000000000000000000000000000000000000000000000000000008110156106ec575f86610100015182601c811061065b5761065b615185565b602002015190505f61066d828661205e565b90508061068d576040516313f8744360e31b815260040160405180910390fd5b5f876060015184601c81106106a4576106a4615185565b602002015190506106b5838261207b565b95506106dc886040015185601c81106106d0576106d0615185565b6020020151868361222a565b945050505080600101905061061b565b505f610706866101200151865f0151876020015185612255565b90508281145b9695505050505050565b5f61075d6040518061012001604052805f81526020015f81526020015f81526020015f81526020015f81526020015f81526020015f81526020015f81526020015f81525090565b5f61076b8460a001516122c3565b9050610775614e31565b61077d614e50565b60e086015161079c9061079790855f5b6020020151612021565b612328565b60a085015260e08601516107bb9061079790855f5b6020020151612008565b60c080860182905260a0860151908801516107da926105489190611fef565b845260a0860151610808906107ee90612328565b6105438660a001516105668a60c001518960c00151611fef565b60208501526001825261018088015161082090612391565b81526001606085018190525f60808601525b602381116108d857610853610849865f01516123db565b8660600151611fef565b83826046811061086557610865615185565b602002015260808501516101208a01516108a8919061054890610889600186615199565b6028811061089957610899615185565b60200201518860600151611fef565b8560800181815250506108c385606001518860800151611fef565b60608601526108d1816151ac565b9050610832565b505f6108e660236001615172565b90505b602881116109675761090161084986602001516123db565b83826046811061091357610913615185565b602002015260808501516101208a0151610937919061054890610889600186615199565b85608001818152505061095285606001518860800151611fef565b6060860152610960816151ac565b90506108e9565b50606087015181600160200201526080870151816002602002015260a0870151816003602002015260c0870151816004602002015260e0870151816005602002015261010087015181600660200201526101208701518160076020020152610140870151816008602002015261016087015181600960200201526101a087015181600a602002015261018087015181600b60200201526101c087015181600c60200201526101e087015181600d602002015261020087015181600e602002015261022087015181600f60200201526102408701518160106020020152610260870151816011602002015261028087015181601260200201526102a087015181601360200201526102c087015181601460200201526102e08701518160156020020152610300870151816016602002015261032087015181601760200201526103408701518160186020020152610360870151816019602002015261038087015181601a60200201526103a087015181601b60200201528751610ae890612391565b6103808201526020880151610afc90612391565b6103a08201526040880151610b1090612391565b6103c08201526060880151610b2490612391565b6103e08201526080880151610b3890612391565b61040082015260e0880151610b4c90612391565b61042082015260a0880151610b6090612391565b61044082015260c0880151610b7490612391565b6104608201528751610b8590612391565b6104808201526020880151610b9990612391565b6104a08201526040880151610bad90612391565b6104c08201526060880151610bc190612391565b6104e08201526080880151610bd590612391565b610500820152606086015160808501516101608a01515f92610c1a929091877f00000000000000000000000000000000000000000000000000000000000000006123f3565b805160a0870151919250610c2d91611fef565b604086018190526101608a01515160c0890151610c5d929161054891610c539190611fef565b8860c00151611fef565b604086015260c0870151610c709061250e565b60608601525f5b610c836001601c615199565b811015610e85575f610cb660017f0000000000000000000000000000000000000000000000000000000000000000615199565b821015905080610e2b57610ce96107978a60e0015188856001610cd99190615172565b601c811061078d5761078d615185565b60a088015260e0890151610d17906107979088610d07866001615172565b601c81106107b1576107b1615185565b60c0880152606087015160a0880151610d309190611fef565b60e0880152606087015160c08a0151610d4c91610c5391611fef565b6101008801819052610d6e90610d61906123db565b6105488960e001516123db565b8583610d7c60286001615172565b610d869190615172565b60468110610d9657610d96615185565b60200201526101008701516101608c01515f91610dd291610db8866001615172565b601c8110610dc857610dc8615185565b6020020151611fef565b9050610dee816105488a60e0015187876001610db89190615172565b9050610dfe886040015182612008565b6040890152606088015160c08b0151610e2491610e1a91611fef565b8b60c00151611fef565b6060890152505b610e4f8b610140015183601b8110610e4557610e45615185565b6020020151612391565b8483610e5d60286001615172565b610e679190615172565b60468110610e7757610e77615185565b602002015250600101610c77565b5060408051808201909152600181526002602082015282610ea8601c6028615172565b60468110610eb857610eb8615185565b6020020152604085015183610ecf601c6028615172565b60468110610edf57610edf615185565b60200201526101a08901515f90610ef590612391565b90508083610f05601c6028615172565b610f10906001615172565b60468110610f2057610f20615185565b602002015260e088015184610f37601c6028615172565b610f42906001615172565b60468110610f5257610f52615185565b60200201525f610f628486612519565b90505f610f6e836125ea565b9050610f7a8282612661565b9c9b505050505050505050505050565b610f9261483c565b50604080516103c0810182526201000081526010602080830191909152600382840152825180840184527f0fc1be7f12bdf45b2311958f228e3edb8c22a25029882e45d399c76c97090dd081527f1e261c700e2475c434d3ee695e66285f13b358ed0f159e2c6edee8213c15ffba818301526060830152825180840184527f268480ed14e36279d3bc73d7e8ff65ec96c9b22f8fdfb7614878866ac1f1c06781527f2fe281ca976cee691b018f5f36b16b02ab6218ca2752caf637012faf4484cf7a818301526080830152825180840184527f0c4cec6d351460a26cc338ebd4aa74fbcc8d877287c05e107b7418802168bfd081527f2ade3e41f9c1c57f56aefa35ff092060c3bfc8846f0c1c9dd4c95e1205a8a8cc8183015260a0830152825180840184527f1780437bda904b32a1e12595cc6197f9f5efb4a6b767b70a7949cb489c7ca2a781527f1ef253f111ca386477935a717f27986eb3ded184c6729e04bc0c5a9292e7cac78183015260c0830152825180840184527e5514181eee6904c3e77c090ec429245673c38b9ba617fb114d6c3aecbca7e681527f19392acfc4265623164d91ce611a385d581821b1e754db3ab90a1e837ebc7ba78183015260e0830152825180840184527f2216fe1401d9b9e597c2be98e842e9f53d698aefaf39c3632be701b3b45bf65f81527e688736740ea2629abf8711146868d624de039a580a76c9be1c3a75a56c735081830152610100830152825180840184527f0ca3bb07fcfcaf258e5eaaa1b5491bc81e6672a84179fa4217e003cca2e649c181527f17e827c6072c40993778590af41d13e0aa6f2f60f2ad395dc672c9965288748281830152610120830152825180840184527f1cf7c900e2bab3cfbbef97f7757f1d3207a6e84e40900eb1549be1d8204dc8ba81527f21d72463d336d8e144acbb5643ce5a8c3e7d23f557a2e33d99875869bc57049281830152610140830152825180840184527f12fd778827f7ed07aead855febda00bbdcacf170112ae2989951e86d70ddf27a81527f04da29b7f1cfdbff88e9e5b41f737c38425b52c3fef0eb500396dacd93b6525d81830152610160830152825180840184527f04c20ac675648a102431c3e4ef3cbf378d39bd890656ff5e4af2d7b41bb4616e81527f0aa7e9c548b1e55a2af3f89962380be85fe69dfa6a5c8e81a6540733dd67e2e081830152610180830152825180840184527f1f51507e7a07b1d5cd42700cf84efb500f0aaedc21fe7f03b4726c99da0655a281527f0175f15086740b6de66eed3de13b7a1d50225c9d5a573d01c1c6bf8ac2c9efdc818301526101a0830152825180840184527f2ef4fb3376511f4564a0b0f8c7d890089a831fc51335f8361177b62761c5edb781527f0509851d296f6e56980b3c739cbd42def0c30fc0851c6086dfdbfd3a4dda5e8d818301526101c0830152825180840184527f2695ae05f7274358984358df235345c3b8d2e021578f58d1d47f6d59cbf5e8d981527f01e6594bdaa9c60ffd7ebabcce1a23a7c930b1c7ac5473e68b8f7397d7500d95818301526101e0830152825180840184527f108da07266ff5519a3f319fa418530fa9f1fb8eb5d01a737c439d6b84e72297581527f2f1b3ff4c78a08fe339ad5f503f9a9ffd679c8f5f4c7d780c817fa5d5a32458881830152610200830152825180840184527f15cfdc3870f9688ec067d70091deb0ccb9a16a85eb0f33903234a92b093cb6c981527f03b2bcdff0813fc4ad76d6dbd4796f2d3bb26b3f33b687cee70fff7cada03ca381830152610220830152825180840184527f1e1e56e27896540ea6859b7f2120a071936c61742549f8db2d7589b08b70e66f81527f0b391a745b1a406d358d5c0e465c8ca33aac4300e98746e286c72ff7fdbf68a381830152610240830152825180840184527f29980aec882156ae61c454dc09fcebcdd0c730c040de18dcfd8db9948df198e681527f257ca9d9d0dea024702ef28896d39fe86b1f86c6e478c9318a5174e4f65bba4481830152610260830152825180840184527f1c01d0b20077152b687fbdd427d0803a6ed52f86296aeca427ee51dc638f489181527f06b471da09a04b97b46010e8ab4df46b5a74e2caada3266dd47f202b7964562681830152610280830152825180840184527f1c11b8608894ae37a97faff4a3732b2a8fbb4ed4c92f9c952f87291c7bf8eed781527f157c3b4a736222a14b451a9bb64d29e294fe6ac9df850b65bad5f71d479ae4eb818301526102a0830152825180840184527f036d18b5d31087ce55b73f67d1f2169752df0b52bd02e60f6829385dc41c374881527f02767a04033047d6b49879e4b194bb5ac9aed4dd08035f59eafe00008f6de995818301526102c0830152825180840184527f2b01db41266cbf7e0cb77a7ecfcc7a9621d2355bb34c3274d07d142c0ebc5dae81527f11ffb9f4e04f5fa1ba442507fd93344e38211e75dfeba78da3e4f4470399715a818301526102e0830152825180840184527f0da32b11bafb8e3b0855e11ceec2245b34396f3197608815e843d88e9de08d6781527f2b0c92c8af0805eed06b0702242f223a2cd5d606cab7b03ee5cae4a3ac805f2781830152610300830152825180840184527f1a871bdc03ee156ffa2e7ec2b54d157fb60ce141865bcfd06ef3f12e707dc5c181527f0d6c4a26e8fd4872284e8268c0bf309c997222541670757d24a5873c3896adc381830152610320830152825180840184527f1a06a1395616ca678713bfad545c7eefe03aa7f1012d330a8c03b6ea744f9e5f81527f1fe6426a6c7d8b49807bd4977e0c5c664fbf41e720c414eb52c9f44fea1463b481830152610340830152825180840184527f0b2c15fa0e23fe0c6257d9f689810134857e93034532ea3d8dc65d642f0a3fda81527f0544ba5025810309990b218d8cfcd0f0d081299edbbba89332b321568d2d3fa381830152610360830152825180840184526001815260028183015261038083015282518084019093527f103d6823b5401fb752ecae68947e46032f36c79f86092dc6b492077d29342ba883527f231262bbbabfed53055bc5e7f55314280ceb0c17e165453e4c78d9431dc94249908301526103a081019190915290565b61189560405180608001604052805f81526020015f81526020015f81526020015f81525090565b608082146118e05760405162461bcd60e51b81526020600482015260136024820152721a5b9d985b1a5908189e5d195cc81c1bda5b9d606a1b60448201526064015b60405180910390fd5b6040805160808101909152806118f960205f868861514b565b611902916151c4565b815260209081019061191890604090868861514b565b611921916151c4565b815260200161193460606040868861514b565b61193d916151c4565b815260200161195060806060868861514b565b611959916151c4565b90529392505050565b5f602082146119aa5760405162461bcd60e51b815260206004820152601460248201527334b73b30b634b210313cba32b99039b1b0b630b960611b60448201526064016118d7565b6119b761053e83856151c4565b9392505050565b6119f16040518060c001604052805f81526020015f81526020015f81526020015f81526020015f81526020015f81525090565b5f611a00898989898989612865565b604086019190915260208501919091529083529250611a1f838a612c88565b608085019190915260608401919091529199919850909650505050505050565b611a47614e89565b5f611a50614ea8565b84815260e0848101805151602080850191909152815181015160408086019190915282518101516060808701919091529251830151608080870191909152880180515160a0870152805183015160c08701528051820151948601949094529251909101516101008401529051611ae791611acc918491016151e1565b60405160208183030381529060405280519060200120611fd1565b9150611af282612d53565b6020850152835260015b611b0860026019615229565b811015611b8857611b2583604051602001611acc91815260200190565b9250611b3083612d53565b85611b3c846002615134565b60198110611b4c57611b4c615185565b6020020186611b5c856002615134565b611b67906001615172565b60198110611b7757611b77615185565b602002019190915252600101611afc565b50611b9f82604051602001611acc91815260200190565b91505f611bab83612d53565b85611bb860016019615199565b60198110611bc857611bc8615185565b60200201919091525050509250929050565b611be2614ec7565b5f805b601c811015611c3457611c0484604051602001611acc91815260200190565b93505f611c1085612d53565b8584601c8110611c2257611c22615185565b60200201919091525050600101611be5565b5090929050565b611c43614ec7565b5f805b601c811015611d0657611c57614ea8565b8481525f5b6008811015611cc05786610100015183601c8110611c7c57611c7c615185565b60200201518160088110611c9257611c92615185565b602002015182611ca3836001615172565b60098110611cb357611cb3615185565b6020020152600101611c5c565b50611cd581604051602001611acc91906151e1565b94505f611ce186612d53565b8685601c8110611cf357611cf3615185565b6020020191909152505050600101611c46565b50909391925050565b5f5f611d19614ee6565b8381525f5b6028811015611d6c578561012001518160288110611d3e57611d3e615185565b602002015182611d4f836001615172565b60298110611d5f57611d5f615185565b6020020152600101611d1e565b50611d8181604051602001611acc919061523c565b91505f611d8d83612d53565b5096929550919350505050565b5f5f611da4614f05565b8381525f5b611db56001601c615199565b811015611ef35785610140015181601b8110611dd357611dd3615185565b60200201515182611de5836004615134565b611df0906001615172565b606d8110611e0057611e00615185565b602002015261014086015181601b8110611e1c57611e1c615185565b60200201516020015182826004611e339190615134565b611e3e906002615172565b606d8110611e4e57611e4e615185565b602002015261014086015181601b8110611e6a57611e6a615185565b60200201516040015182611e7f836004615134565b611e8a906003615172565b606d8110611e9a57611e9a615185565b602002015261014086015181601b8110611eb657611eb6615185565b60200201516060015182611ecb836004615134565b611ed6906004615172565b606d8110611ee657611ee6615185565b6020020152600101611da9565b50611d8181604051602001611acc9190615270565b5f5f611f12614f24565b8381525f5b601c811015611f655785610160015181601c8110611f3757611f37615185565b602002015182611f48836001615172565b601d8110611f5857611f58615185565b6020020152600101611f17565b50611d8181604051602001611acc91906152a4565b5f5f611f84614f43565b83815261018085018051516020808401919091528151810151604080850191909152825181015160608086019190915292519092015160808401529051611d8191611acc918491016152d8565b5f611fe95f5160206153fa5f395f51905f528361530b565b92915050565b5f5f5160206153fa5f395f51905f528284099392505050565b5f5f5160206153fa5f395f51905f528284089392505050565b5f5f5160206153fa5f395f51905f52612047835f5160206153fa5f395f51905f52615199565b84089392505050565b5f6119b78361054384612328565b81515f908190612070908560016107b1565b929092149392505050565b60408051610100810182527f30644e72e131a029b85045b68181585d2833e84879b9709143e1f593efffec5181526102d060208201527f30644e72e131a029b85045b68181585d2833e84879b9709143e1f593efffff1191810191909152609060608201527f30644e72e131a029b85045b68181585d2833e84879b9709143e1f593efffff71608082015260f060a08201527f30644e72e131a029b85045b68181585d2833e84879b9709143e1f593effffd3160c08201526113b060e08201525f906001825b600881101561216257612158826105438784612021565b9150600101612141565b5061216b614f61565b5f5b60088110156121cc575f84826008811061218957612189615185565b6020020151905061219e816105438985612021565b90506121a981612328565b9050808383600881106121be576121be615185565b60200201525060010161216d565b505f5b600881101561221f575f8782600881106121eb576121eb615185565b6020020151905061220881848460088110610dc857610dc8615185565b90506122148682612008565b9550506001016121cf565b5061070c8483611fef565b5f5f612240600161054885610543896001612021565b905061224c8482611fef565b95945050505050565b5f61225e614f80565b612269868285612d8c565b61227586868386612f38565b61228186868386613120565b61228c86828561331c565b612297868285613504565b6122a38686838661384d565b6122ae8682856140e7565b6122b98682856144b2565b61070c81856147a7565b6122cb614ec7565b81815260015b601c81101561232257612303826122e9600184615199565b601c81106122f9576122f9615185565b602002015161250e565b8282601c811061231557612315615185565b60200201526001016122d1565b50919050565b5f5f8290505f604051602081526020808201526020604082015282606082015260025f5160206153fa5f395f51905f520360808201525f5160206153fa5f395f51905f5260a082015260205f60c08360055afa905080612386575f5ffd5b50505f519392505050565b604080518082019091525f8082526020820152604051806040016040528060888460200151901b845f015117815260200160888460600151901b8460400151178152509050919050565b5f611fe9825f5160206153fa5f395f51905f52615199565b6123fb614ec7565b601c5b8015612504575f84612411600184615199565b601c811061242157612421615185565b602002015190505f88612435600185615199565b601c811061244557612445615185565b602002015190505f6124a061246461245d858c611fef565b6002611fef565b6105668a612473600189615199565b601c811061248357612483615185565b602002015161054361249a8861054360018a612021565b87612021565b90506124c1816105436107976124bb87610543600189612021565b86612008565b90508584116124f05797508780856124da600187615199565b601c81106124ea576124ea615185565b60200201525b505050806124fd9061531e565b90506123fe565b5095945050505050565b5f611fe98283611fef565b604080518082019091525f80825260208201525f612539601c6028615172565b612544906002615172565b90506001604051855151604082015285516020015160608201528451608082015260408160606040840160075afa8216915060015b838110156125d25760208102870160208202870181515160408501528151602001516060850152805160808501525050604080830160606040850160075afa8316925060408260808460065afa90921691600101612579565b50805184526020810151602085015250505092915050565b604080518082019091525f80825260208201527f30644e72e131a029b85045b68181585d97816a916871ca8d3c208c16d87cfd4782602001517f30644e72e131a029b85045b68181585d97816a916871ca8d3c208c16d87cfd4761264e9190615199565b612658919061530b565b60208301525090565b81516020808401518351848301516040805194850195909552938301919091527f198e9393920d483a7260bfb731fb5d25f1aa493335a9e71297e485b7aef312c260608301527f1800deef121f1e76426a00665e5c4479674322d4f75edadd46debd5cd992f6ed60808301527f090689d0585ff075ec9e99ad690c3395bc4b313370b38ef355acdadcd122975b60a08301527f12c85ea5db8c6deb4aab71808dcb408fe3d1e7690c43d37b4ce6cc0166fa7daa60c083015260e08201526101008101919091527f260e01b251f6f1c7e7ff4e580791dee8ea51d87a358e038b4efe30fac09383c16101208201527f0118c4d5b837bcc2bc89b5b398b5974e9f5944073b32078b7e231fec938883b06101408201527f04fc6369f7110fe3d25156c1bb9a72859cf2a04641f99ba4ee413c80da6a5fe46101608201527f22febda3c0c0632a56475b4214e5615e11e6dd3f96e6cea2854a87d4dacc5e556101808201525f9081906101a00160405160208183030381529060405290505f5f60086001600160a01b0316836040516127f79190615333565b5f60405180830381855afa9150503d805f811461282f576040519150601f19603f3d011682016040523d82523d5f602084013e612834565b606091505b50915091505f8180602001905181019061284e9190615349565b905082801561285a5750805b979650505050505050565b5f80808080612875876003615172565b61288090600c615172565b67ffffffffffffffff81111561289857612898615368565b6040519080825280602002602001820160405280156128c1578160200160208202803683370190505b509050875f1b815f815181106128d9576128d9615185565b602002602001018181525050865f1b816001815181106128fb576128fb615185565b602002602001018181525050855f1b8160028151811061291d5761291d615185565b60209081029190910101525f5b8781101561297c578a8a8281811061294457612944615185565b90506020020135828260036129599190615172565b8151811061296957612969615185565b602090810291909101015260010161292a565b508a51518161298c896003615172565b8151811061299c5761299c615185565b6020908102919091018101919091528b510151816129bb896003615172565b6129c6906001615172565b815181106129d6576129d6615185565b60209081029190910101528a5160400151816129f3896003615172565b6129fe906002615172565b81518110612a0e57612a0e615185565b60209081029190910101528a516060015181612a2b896003615172565b612a36906003615172565b81518110612a4657612a46615185565b6020908102919091018101919091528b01515181612a65896003615172565b612a70906004615172565b81518110612a8057612a80615185565b6020908102919091018101919091528b810151015181612aa1896003615172565b612aac906005615172565b81518110612abc57612abc615185565b6020908102919091018101919091528b01516040015181612ade896003615172565b612ae9906006615172565b81518110612af957612af9615185565b6020908102919091018101919091528b01516060015181612b1b896003615172565b612b26906007615172565b81518110612b3657612b36615185565b602090810291909101015260408b01515181612b53896003615172565b612b5e906008615172565b81518110612b6e57612b6e615185565b60209081029190910181019190915260408c0151015181612b90896003615172565b612b9b906009615172565b81518110612bab57612bab615185565b60209081029190910101526040808c0151015181612bca896003615172565b612bd590600a615172565b81518110612be557612be5615185565b602090810291909101015260408b01516060015181612c05896003615172565b612c1090600b615172565b81518110612c2057612c20615185565b602002602001018181525050612c4081604051602001611acc919061537c565b9150612c4b82612d53565b6040805160208101869052929750909550612c669101611acc565b91505f612c7283612d53565b50959c949b509499509097509195505050505050565b5f5f5f612c93614f9f565b85815260a0858101805151602080850191909152815181015160408086019190915282518101516060808701919091529251830151608086015260c0808a0180515195870195909552845183015190860152835181015160e086015292518201516101008501528188018051516101208601528051820151610140860152805184015161016086015251909101516101808401529051612d3991611acc918491016153b1565b9150612d4482612d53565b90979096509194509092505050565b5f80826fffffffffffffffffffffffffffffffff8116608082901c612d7782611fd1565b9450612d8281611fd1565b9350505050915091565b5f612d9884600761480c565b90507f183227397098d014dc2822db40c0ac2e9419f4243cdcb848a1f0fac9f80000005f612df9612df3612dcd856003612021565b610543612de8612ddd8b5f61480c565b6105438c601c61480c565b6105438b601b61480c565b83611fef565b9050612e7a612e6f612e56612e3d612e2485610548612e198d600261480c565b6105438e601b61480c565b610548612e328c600361480c565b6105438d601c61480c565b610548612e4b8b600461480c565b6105438c601d61480c565b610548612e648a600561480c565b6105438b601e61480c565b61054888600161480c565b9050612e9981610548612e8e866001612021565b6105438a602661480c565b9050612ea58184611fef565b9050612eb18185611fef565b8552505f9050612eeb612ee1612ed6612ecb88601b61480c565b61054889601e61480c565b61056688602361480c565b610548875f61480c565b9050612efc81610543846002612021565b9050612f0d81610543846001612021565b9050612f198183611fef565b9050612f258184611fef565b9050808460015b60200201525050505050565b5f5f5f612f6e612f64612f4c89601b61480c565b610548612f5a8b601161480c565b8a60600151611fef565b8760800151612008565b9050612fa781610543612f9d612f858b601c61480c565b610548612f938d601261480c565b8c60600151611fef565b8960800151612008565b9050612fcc81610543612f9d612fbe8b601d61480c565b610548612f938d601361480c565b9050612ff181610543612f9d612fe38b601e61480c565b610548612f938d601461480c565b92505f9050613015612f6461300789601b61480c565b610548612f5a8b600d61480c565b905061303a81610543612f9d61302c8b601c61480c565b610548612f938d600e61480c565b905061305f81610543612f9d6130518b601d61480c565b610548612f938d600f61480c565b905061308481610543612f9d6130768b601e61480c565b610548612f938d601061480c565b91505f90506130ab6130a561309a89601f61480c565b6105488a601961480c565b84611fef565b90506130e0816105666130da6130c28b602761480c565b6105486130d08d601a61480c565b8c60a00151611fef565b85611fef565b90506130ec8185611fef565b6040860152505f61310f6130da61310489601a61480c565b6105438a602761480c565b606090950194909452505050505050565b5f5f61317e61316661314e613139612f9d8a601561480c565b6105486131478b601661480c565b8a51611fef565b61054861315c8a601761480c565b8960200151611fef565b61054861317489601861480c565b8860400151611fef565b91505f6131b561319c61319289601b61480c565b8860800151612008565b6105486131aa8a600361480c565b6105438b602361480c565b90505f6131de6131c689601c61480c565b6105486131d38b5f61480c565b6105438c602461480c565b90505f6132086131ef8a601d61480c565b6105486131fd8c600161480c565b6105438d602561480c565b905061324761322f61322185610548868d5f0151611fef565b610548848c60200151611fef565b61054861323d8c600461480c565b8b60400151611fef565b93505050505f61325b6130a588602061480c565b90505f61326c6130a589602061480c565b90505f6132a461328b6132808b602261480c565b6105488c600661480c565b6105666132998c602261480c565b6105438d600661480c565b90505f6132c86132c26132b78789611fef565b6105438d602061480c565b83612021565b90506132d48188611fef565b90505f6132fc6132ee6132e88d600661480c565b87611fef565b6105666132e88e602161480c565b60808a018390529050808960055b60200201525050505050505050505050565b5f6133285f6001612021565b90505f6133365f6002612021565b90505f6133445f6003612021565b90505f61336061335588601c61480c565b61056689601b61480c565b90505f61337c61337189601d61480c565b6105668a601c61480c565b90505f61339861338d8a601e61480c565b6105668b601d61480c565b90505f6133b46133a98b602361480c565b6105668c601e61480c565b9050836133c581610543818b612008565b90506133d581610543878a612008565b90506133e5816105438789612008565b90506133f6816105438d600861480c565b9050613402818a611fef565b60c08b0152508261341781610543818b612008565b905061342781610543868a612008565b9050613437816105438689612008565b9050613448816105438d600861480c565b9050613454818a611fef565b60e08b0152508161346981610543818b612008565b905061347981610543858a612008565b9050613489816105438589612008565b905061349a816105438d600861480c565b90506134a6818a611fef565b6101008b015250806134bc81610543818b612008565b90506134cc81610543848a612008565b90506134dc816105438489612008565b90506134ed816105438d600861480c565b90506134f9818a611fef565b9050808a600961330a565b61353d6040518060e001604052805f81526020015f81526020015f81526020015f81526020015f81526020015f81526020015f81525090565b61354884601c61480c565b815261355584601d61480c565b602082015261356584602361480c565b604082015261357584602661480c565b606082015261358584602561480c565b608082015261359584602461480c565b60a08201525f6135a685600261480c565b90505f6135b3865f61480c565b90505f6135c78460400151855f0151612021565b90505f6135dc85602001518660200151611fef565b606086015190915086905f906135f29080611fef565b90505f61361061360a89602001518a60600151611fef565b88611fef565b90505f61362f6136288a60a001518b60400151612008565b8a51612008565b905061363e6132e88288611fef565b905061366561365f6136596136538487612021565b88612021565b84612008565b83612008565b905061368d6136826136778387611fef565b6105438f600961480c565b61054360018a612021565b6101408c015250505050602085015160808601515f916136ac91612008565b90505f6136ca6136c0886060015188611fef565b8860200151612021565b90505f6136ee6136da8487611fef565b6105486130da8b60a001518c5f0151612021565b905061371661370b613700838c611fef565b6105438e600961480c565b610543600189612021565b6101608b0152505f91506137379050613730836011612008565b8751611fef565b90505f6137448384612008565b90506137508182612008565b90505f61375e836009611fef565b90506137876137816130a561377a8b60a001518c5f0151612008565b8b51612008565b82612021565b60c089018190525f906137a29061360a90613677908d611fef565b90506137b58b600a602002015182612008565b6101408c0152505086515f92506137dc9150613730906137d59080612008565b8851612008565b90505f61381c6137f7836105438a5f01518b60a00151612021565b60208901516105669061380a9080612008565b6105438b602001518c60800151612008565b905061383989600b602002015161054861360a613677858d611fef565b89600b602002015250505050505050505050565b6138e1604051806102c001604052805f81526020015f81526020015f81526020015f81526020015f81526020015f81526020015f81526020015f81526020015f81526020015f81526020015f81526020015f81526020015f81526020015f81526020015f81526020015f81526020015f81526020015f81526020015f81526020015f81526020015f81526020015f81525090565b6139166138fd6138f287601b61480c565b61054388602461480c565b61054861390b88602361480c565b61054389601c61480c565b815261395b61395061393761392c88601b61480c565b61054389601e61480c565b61054861394589601c61480c565b6105438a601d61480c565b61056687602561480c565b6040820181905261397090600160441b611fef565b604082018190526139869061056687602661480c565b6040820181905281516139999190612008565b604082018190526139af9061054387600561480c565b604082015280516139c490600160441b611fef565b8082526139e4906105486139d988602361480c565b61054389602461480c565b80825260208201819052613a0090610566612ecb88601d61480c565b60208201819052613a169061054387600461480c565b6020820152805160608201819052613a339061054887601e61480c565b60608201819052613a5790610566613a4c88602561480c565b61054889602661480c565b60608201819052613a6c90610543875f61480c565b8160600181815250505f613a95613a8b83602001518460400151612008565b8360600151612008565b9050613aa68161054388600361480c565b9050613abe613ab687602461480c565b614000611fef565b60808301819052613ad49061054888602361480c565b60808301819052613ae790614000611fef565b60808301819052613afd9061054888601d61480c565b60808301819052613b1090614000611fef565b60808301819052613b269061054888601c61480c565b60808301819052613b3990614000611fef565b60808301819052613b4f9061054888601b61480c565b60808301819052613b659061056688601e61480c565b60808301819052613b7b9061054388600561480c565b6080830152613b8e613ab687602561480c565b60a08301819052613ba49061054888602461480c565b60a08301819052613bb790614000611fef565b60a08301819052613bcd9061054888602361480c565b60a08301819052613be090614000611fef565b60a08301819052613bf69061054888601e61480c565b60a08301819052613c0990614000611fef565b60a08301819052613c1f9061054888601d61480c565b60a08301819052613c359061056688602661480c565b60a08301819052613c4a90610543885f61480c565b60a0830181905260808301515f91613c629190612008565b9050613c738161054389600461480c565b9050613c8d613c8388601d61480c565b8760400151611fef565b60c08401819052613ca69061054861315c8a601c61480c565b60c08401819052613cc690610548613cbf8a601b61480c565b8951611fef565b60c08401819052613cdc9061054889600161480c565b60c0840181905260e08401819052613cf99061056689601e61480c565b60c0840152613d0c61335588602361480c565b610140840152613d2b613d2088602661480c565b61056689601e61480c565b610120840152610140830151613d5090613d459080611fef565b846101400151612021565b610280840152610140830151613d9290613d8790613d809061054360015f5160206153fa5f395f51905f52615199565b6001612008565b846101200151611fef565b6101608401819052613dc990613dbb90610543613db08b600261480c565b6105438c600361480c565b6105436132e88a600a61480c565b6101a0860152610280830151613deb90613dbb90610543613db08b600261480c565b6101c086015260c0830151613e1390610543613e088a600261480c565b6105438b600361480c565b6101e08401525f613e32613e2889601e61480c565b8560e00151612021565b9050613e416137818283611fef565b6101a0850152613e5561317489602561480c565b6101008501819052613e7990610548613e6f8b602461480c565b8a60200151611fef565b6101008501819052613e93906105486131478b602361480c565b610100850152613eb2613ea789602661480c565b856101000151612021565b6101008501525f613ec761338d8a602561480c565b9050613f1b613ef5612df3613d8088610140015160015f5160206153fa5f395f51905f526105439190615199565b610543613d8088610100015160015f5160206153fa5f395f51905f526105439190615199565b610180860152610100850151613f4090613f359080611fef565b866101000151612021565b6101c0860152610180850151613f7390613f5f906105438c600761480c565b610543613f6d8c600a61480c565b89611fef565b6101e0880152610280850151613f9290613f5f906105438c600761480c565b6102008801526101c0850151613fb190613f5f906105438c600761480c565b6102208801526101a0850151613fcc906105438b600761480c565b610200860152613feb613fe08a602461480c565b6105668b601c61480c565b61022086015261014085015161402a9061338d9061401f90613d809061054360015f5160206153fa5f395f51905f52615199565b876102200151611fef565b61024086018190526101e0860151610260870181905261406191610548906105436140568e600561480c565b6105438f600261480c565b610260860181905260c08601516140849190610548906105436140568e5f61480c565b610260860181905261020086015161409c9190612008565b61026086018190526140b2906136599086612008565b6102a086018190526140cc90610543613f6d8c600a61480c565b6102a0860181905287600c6020020152505050505050505050565b61415d6040518061022001604052805f81526020015f81526020015f81526020015f81526020015f81526020015f81526020015f81526020015f81526020015f81526020015f81526020015f81526020015f81526020015f81526020015f81526020015f81526020015f81526020015f81525090565b61417661416b85601b61480c565b61054886600261480c565b815261419161418685601c61480c565b61054886600361480c565b60208201526141af6141a485601d61480c565b61054886600461480c565b60408201526141cd6141c285601e61480c565b61054886600561480c565b606082015280516141ff906141f8906141f1906141ea9080611fef565b8451611fef565b8351611fef565b8251611fef565b6080820152602081015161423d90614233906142299061421f9080611fef565b8460200151611fef565b8360200151611fef565b8260200151611fef565b60a0820152604081015161427b90614271906142679061425d9080611fef565b8460400151611fef565b8360400151611fef565b8260400151611fef565b60c082015260608101516142b9906142af906142a59061429b9080611fef565b8460600151611fef565b8360600151611fef565b8260600151611fef565b60e0820152608081015160a08201516142d29190612008565b61010082015260c081015160e08201516142ec9190612008565b61012082015260a0810151614310906143059080612008565b826101200151612008565b61014082015260e0810151614334906143299080612008565b826101000151612008565b61016082015261012081015161434a9080612008565b6101e0820181905261436b906143609080612008565b826101600151612008565b6101e08201526101008101516143819080612008565b6101a082018190526143a2906143979080612008565b826101400151612008565b6101a082018190526101608201516143b991612008565b6101808201526101408101516101e08201516143d59190612008565b6101c08201526143e9612df385600b61480c565b61020082018190526102408401516101808301516144149261054891610543906105668a602361480c565b83601260200201526144448360136020020151610548836102000151610543856101a001516105668a602461480c565b83601360200201526144748360146020020151610548836102000151610543856101c001516105668a602561480c565b83601460200201526144a48360156020020151610548836102000151610543856101e001516105668a602661480c565b836015602002015250505050565b6145046040518061016001604052805f81526020015f81526020015f81526020015f81526020015f81526020015f81526020015f81526020015f81526020015f81526020015f81526020015f81525090565b5f60405180608001604052806145397f10dc6e9c006ea38b04b1e03b4bd9490c0d03f98929ca1d7fb56821fd19d3b6e7611fd1565b81526020016145677f0c28145b6a44df3e0149b3d0a30b3bb599df9756d4dd9b84a86b38cfb45a740b611fd1565b81526020016145947e544b8338791518b2c7645a50392798b21f75bb60e3596170067d00141cac15611fd1565b81526020016145c27f222c01175718386f2e2e82eb122789e352e105a3b8fa852613bc534433ee428b611fd1565b905290506145df6145d486601b61480c565b61054887600261480c565b61012083018190526146139061460890613d87906145fd9080611fef565b856101200151611fef565b836101200151611fef565b825261462085601c61480c565b602083015261463085601d61480c565b604083015261464085601e61480c565b60608301528151602083015161466891613a8b9161465e9190612008565b8460400151612008565b608083015261467b6130a586600c61480c565b610140830152815161469c9061469290835f610dc8565b8360800151612008565b60a08301526146c884601660200201516105488461014001516105438660a001516105668b602361480c565b6102c085015260208201516146e39061469290836001610dc8565b60c083015261470f84601760200201516105488461014001516105438660c001516105668b602461480c565b6102e0850152604082015161472a9061469290836002610dc8565b60e083015261475684601860200201516105488461014001516105438660e001516105668b602561480c565b61030085015260608201516147719061469290836003610dc8565b61010083015261479f84601960200201516105488461014001516105438661010001516105668b602661480c565b846019612f2c565b5f6147b38184816107b1565b905060015b601a811015614805576147fb826105488684601a81106147da576147da615185565b6020020151866147eb600187615199565b60198110610dc857610dc8615185565b91506001016147b8565b5092915050565b5f82826027811115614820576148206153e5565b6028811061483057614830615185565b60200201519392505050565b604051806103c001604052805f81526020015f81526020015f815260200161487560405180604001604052805f81526020015f81525090565b815260200161489560405180604001604052805f81526020015f81525090565b81526020016148b560405180604001604052805f81526020015f81525090565b81526020016148d560405180604001604052805f81526020015f81525090565b81526020016148f560405180604001604052805f81526020015f81525090565b815260200161491560405180604001604052805f81526020015f81525090565b815260200161493560405180604001604052805f81526020015f81525090565b815260200161495560405180604001604052805f81526020015f81525090565b815260200161497560405180604001604052805f81526020015f81525090565b815260200161499560405180604001604052805f81526020015f81525090565b81526020016149b560405180604001604052805f81526020015f81525090565b81526020016149d560405180604001604052805f81526020015f81525090565b81526020016149f560405180604001604052805f81526020015f81525090565b8152602001614a1560405180604001604052805f81526020015f81525090565b8152602001614a3560405180604001604052805f81526020015f81525090565b8152602001614a5560405180604001604052805f81526020015f81525090565b8152602001614a7560405180604001604052805f81526020015f81525090565b8152602001614a9560405180604001604052805f81526020015f81525090565b8152602001614ab560405180604001604052805f81526020015f81525090565b8152602001614ad560405180604001604052805f81526020015f81525090565b8152602001614af560405180604001604052805f81526020015f81525090565b8152602001614b1560405180604001604052805f81526020015f81525090565b8152602001614b3560405180604001604052805f81526020015f81525090565b8152602001614b5560405180604001604052805f81526020015f81525090565b8152602001614b7560405180604001604052805f81526020015f81525090565b8152602001614b9560405180604001604052805f81526020015f81525090565b8152602001614bb560405180604001604052805f81526020015f81525090565b905290565b604051806101c00160405280614bed60405180608001604052805f81526020015f81526020015f81526020015f81525090565b8152602001614c1960405180608001604052805f81526020015f81526020015f81526020015f81525090565b8152602001614c4560405180608001604052805f81526020015f81526020015f81526020015f81525090565b8152602001614c7160405180608001604052805f81526020015f81526020015f81526020015f81525090565b8152602001614c9d60405180608001604052805f81526020015f81526020015f81526020015f81525090565b8152602001614cc960405180608001604052805f81526020015f81526020015f81526020015f81525090565b8152602001614cf560405180608001604052805f81526020015f81526020015f81526020015f81525090565b8152602001614d2160405180608001604052805f81526020015f81526020015f81526020015f81525090565b8152602001614d2e614fbe565b8152602001614d3b614fec565b8152602001614d4861500b565b8152602001614d55614ec7565b8152602001614d8160405180608001604052805f81526020015f81526020015f81526020015f81525090565b8152602001614bb560405180608001604052805f81526020015f81526020015f81526020015f81525090565b604051806101000160405280614dec6040518060c001604052805f81526020015f81526020015f81526020015f81526020015f81526020015f81525090565b8152602001614df9614e89565b8152602001614e06614ec7565b8152602001614e13614ec7565b81526020015f81526020015f81526020015f81526020015f81525090565b604051806108c001604052806046906020820280368337509192915050565b604051806108c001604052806046905b604080518082019091525f8082526020820152815260200190600190039081614e605790505090565b6040518061032001604052806019906020820280368337509192915050565b6040518061012001604052806009906020820280368337509192915050565b604051806103800160405280601c906020820280368337509192915050565b6040518061052001604052806029906020820280368337509192915050565b60405180610da00160405280606d906020820280368337509192915050565b604051806103a00160405280601d906020820280368337509192915050565b6040518060a001604052806005906020820280368337509192915050565b6040518061010001604052806008906020820280368337509192915050565b604051806103400160405280601a906020820280368337509192915050565b604051806101a00160405280600d906020820280368337509192915050565b604051806103800160405280601c905b614fd6614f61565b815260200190600190039081614fce5790505090565b6040518061050001604052806028906020820280368337509192915050565b604051806103600160405280601b905b61504260405180608001604052805f81526020015f81526020015f81526020015f81525090565b81526020019060019003908161501b5790505090565b5f5f5f5f6040858703121561506b575f5ffd5b843567ffffffffffffffff811115615081575f5ffd5b8501601f81018713615091575f5ffd5b803567ffffffffffffffff8111156150a7575f5ffd5b8760208284010111156150b8575f5ffd5b60209182019550935085013567ffffffffffffffff8111156150d8575f5ffd5b8501601f810187136150e8575f5ffd5b803567ffffffffffffffff8111156150fe575f5ffd5b8760208260051b8401011115615112575f5ffd5b949793965060200194505050565b634e487b7160e01b5f52601160045260245ffd5b8082028115828204841417611fe957611fe9615120565b5f5f85851115615159575f5ffd5b83861115615165575f5ffd5b5050820193919092039150565b80820180821115611fe957611fe9615120565b634e487b7160e01b5f52603260045260245ffd5b81810381811115611fe957611fe9615120565b5f600182016151bd576151bd615120565b5060010190565b80356020831015611fe9575f19602084900360031b1b1692915050565b5f8183825b60098110156152055781518352602092830192909101906001016151e6565b5050506101208201905092915050565b634e487b7160e01b5f52601260045260245ffd5b5f8261523757615237615215565b500490565b5f8183825b6029811015615260578151835260209283019290910190600101615241565b5050506105208201905092915050565b5f8183825b606d811015615294578151835260209283019290910190600101615275565b505050610da08201905092915050565b5f8183825b601d8110156152c85781518352602092830192909101906001016152a9565b5050506103a08201905092915050565b5f8183825b60058110156152fc5781518352602092830192909101906001016152dd565b50505060a08201905092915050565b5f8261531957615319615215565b500690565b5f8161532c5761532c615120565b505f190190565b5f82518060208501845e5f920191825250919050565b5f60208284031215615359575f5ffd5b815180151581146119b7575f5ffd5b634e487b7160e01b5f52604160045260245ffd5b81515f90829060208501835b828110156153a6578151845260209384019390910190600101615388565b509195945050505050565b5f8183825b600d8110156153d55781518352602092830192909101906001016153b6565b5050506101a08201905092915050565b634e487b7160e01b5f52602160045260245ffdfe30644e72e131a029b85045b68181585d2833e84879b9709143e1f593f0000001a2646970667358221220bd02fe5b6f69ea21e78ec8e88cba62d7abb1cfc71dfc11c0e6e150f4de3c0b4964736f6c634300081c0033","linkReferences":{}},"methodIdentifiers":{"verify(bytes,bytes32[])":"ea50d0e4"},"id":32}