{
  "abi": [
    {
      "type": "constructor",
      "inputs": [
        {
          "name": "owner_",
          "type": "address",
          "internalType": "address"
        },
        {
          "name": "verifier_",
          "type": "address",
          "internalType": "address"
        }
      ],
      "stateMutability": "nonpayable"
    },
    {
      "type": "function",
      "name": "addChallenge",
      "inputs": [
        {
          "name": "leadingZeros",
          "type": "uint8",
          "internalType": "uint8"
        },
        {
          "name": "rewards",
          "type": "uint248",
          "internalType": "uint248"
        },
        {
          "name": "remainRewarders",
          "type": "uint8",
          "internalType": "uint8"
        }
      ],
      "outputs": [],
      "stateMutability": "payable"
    },
    {
      "type": "function",
      "name": "challenge",
      "inputs": [
        {
          "name": "challengeId",
          "type": "uint256",
          "internalType": "uint256"
        },
        {
          "name": "nulifier",
          "type": "bytes32",
          "internalType": "bytes32"
        },
        {
          "name": "proof",
          "type": "bytes",
          "internalType": "bytes"
        }
      ],
      "outputs": [],
      "stateMutability": "nonpayable"
    },
    {
      "type": "function",
      "name": "challengeInfo",
      "inputs": [
        {
          "name": "challengeId",
          "type": "uint256",
          "internalType": "uint256"
        }
      ],
      "outputs": [
        {
          "name": "leadingZeros",
          "type": "uint8",
          "internalType": "uint8"
        },
        {
          "name": "remainRewarders",
          "type": "uint8",
          "internalType": "uint8"
        },
        {
          "name": "rewards",
          "type": "uint248",
          "internalType": "uint248"
        }
      ],
      "stateMutability": "view"
    },
    {
      "type": "function",
      "name": "getActiveChallengeId",
      "inputs": [
        {
          "name": "index",
          "type": "uint256",
          "internalType": "uint256"
        }
      ],
      "outputs": [
        {
          "name": "",
          "type": "uint256",
          "internalType": "uint256"
        }
      ],
      "stateMutability": "view"
    },
    {
      "type": "function",
      "name": "getActiveChallengeIds",
      "inputs": [],
      "outputs": [
        {
          "name": "",
          "type": "uint256[]",
          "internalType": "uint256[]"
        }
      ],
      "stateMutability": "view"
    },
    {
      "type": "function",
      "name": "getActiveChallengeLength",
      "inputs": [],
      "outputs": [
        {
          "name": "",
          "type": "uint256",
          "internalType": "uint256"
        }
      ],
      "stateMutability": "view"
    },
    {
      "type": "function",
      "name": "owner",
      "inputs": [],
      "outputs": [
        {
          "name": "",
          "type": "address",
          "internalType": "address"
        }
      ],
      "stateMutability": "view"
    },
    {
      "type": "function",
      "name": "renounceOwnership",
      "inputs": [],
      "outputs": [],
      "stateMutability": "nonpayable"
    },
    {
      "type": "function",
      "name": "stopAllChallenges",
      "inputs": [],
      "outputs": [],
      "stateMutability": "nonpayable"
    },
    {
      "type": "function",
      "name": "transferOwnership",
      "inputs": [
        {
          "name": "newOwner",
          "type": "address",
          "internalType": "address"
        }
      ],
      "outputs": [],
      "stateMutability": "nonpayable"
    },
    {
      "type": "function",
      "name": "usedNulifiers",
      "inputs": [
        {
          "name": "nulifier",
          "type": "bytes32",
          "internalType": "bytes32"
        }
      ],
      "outputs": [
        {
          "name": "",
          "type": "bool",
          "internalType": "bool"
        }
      ],
      "stateMutability": "view"
    },
    {
      "type": "function",
      "name": "verifier",
      "inputs": [],
      "outputs": [
        {
          "name": "",
          "type": "address",
          "internalType": "contract IVerifier"
        }
      ],
      "stateMutability": "view"
    },
    {
      "type": "event",
      "name": "AllChallengesStopped",
      "inputs": [],
      "anonymous": false
    },
    {
      "type": "event",
      "name": "ChallengeCompleted",
      "inputs": [
        {
          "name": "challengeId",
          "type": "uint256",
          "indexed": true,
          "internalType": "uint256"
        }
      ],
      "anonymous": false
    },
    {
      "type": "event",
      "name": "ChallengeSolved",
      "inputs": [
        {
          "name": "challengeId",
          "type": "uint256",
          "indexed": true,
          "internalType": "uint256"
        },
        {
          "name": "remainRewarders",
          "type": "uint256",
          "indexed": false,
          "internalType": "uint256"
        }
      ],
      "anonymous": false
    },
    {
      "type": "event",
      "name": "NewChallengeAdded",
      "inputs": [
        {
          "name": "challengeId",
          "type": "uint256",
          "indexed": true,
          "internalType": "uint256"
        }
      ],
      "anonymous": false
    },
    {
      "type": "event",
      "name": "OwnershipTransferred",
      "inputs": [
        {
          "name": "previousOwner",
          "type": "address",
          "indexed": true,
          "internalType": "address"
        },
        {
          "name": "newOwner",
          "type": "address",
          "indexed": true,
          "internalType": "address"
        }
      ],
      "anonymous": false
    },
    {
      "type": "error",
      "name": "FailedCall",
      "inputs": []
    },
    {
      "type": "error",
      "name": "InsufficientBalance",
      "inputs": [
        {
          "name": "balance",
          "type": "uint256",
          "internalType": "uint256"
        },
        {
          "name": "needed",
          "type": "uint256",
          "internalType": "uint256"
        }
      ]
    },
    {
      "type": "error",
      "name": "OwnableInvalidOwner",
      "inputs": [
        {
          "name": "owner",
          "type": "address",
          "internalType": "address"
        }
      ]
    },
    {
      "type": "error",
      "name": "OwnableUnauthorizedAccount",
      "inputs": [
        {
          "name": "account",
          "type": "address",
          "internalType": "address"
        }
      ]
    }
  ],
  "bytecode": {
    "object": "0x608060405234801561000f575f5ffd5b5060405161106d38038061106d83398101604081905261002e916100f6565b816001600160a01b03811661005c57604051631e4fbdf760e01b81525f600482015260240160405180910390fd5b6100658161008c565b50600180546001600160a01b0319166001600160a01b039290921691909117905550610127565b5f80546001600160a01b038381166001600160a01b0319831681178455604051919092169283917f8be0079c531659141344cd1fd0a4f28419497f9722a3daafe3b4186f6b6457e09190a35050565b80516001600160a01b03811681146100f1575f5ffd5b919050565b5f5f60408385031215610107575f5ffd5b610110836100db565b915061011e602084016100db565b90509250929050565b610f39806101345f395ff3fe6080604052600436106100a5575f3560e01c80638b293d2e116100625780638b293d2e1461019b5780638da5cb5b1461020c578063933f1cad14610228578063ab0ba5d41461023c578063f2fde38b1461025b578063f7bcdbe51461027a575f5ffd5b806305987cd1146100a95780630725ac00146100db5780632b7ac3f3146100fc578063413bc884146101335780636fa44a0f14610149578063715018a614610187575b5f5ffd5b3480156100b4575f5ffd5b506100c86100c3366004610c5c565b61028d565b6040519081526020015b60405180910390f35b3480156100e6575f5ffd5b506100ef61029f565b6040516100d29190610c73565b348015610107575f5ffd5b5060015461011b906001600160a01b031681565b6040516001600160a01b0390911681526020016100d2565b34801561013e575f5ffd5b506101476102b0565b005b348015610154575f5ffd5b50610177610163366004610c5c565b60066020525f908152604090205460ff1681565b60405190151581526020016100d2565b348015610192575f5ffd5b506101476103a8565b3480156101a6575f5ffd5b506101e36101b5366004610c5c565b60056020525f90815260409020805460019091015460ff80831692610100900416906001600160f81b031683565b6040805160ff94851681529390921660208401526001600160f81b0316908201526060016100d2565b348015610217575f5ffd5b505f546001600160a01b031661011b565b348015610233575f5ffd5b506100c86103bb565b348015610247575f5ffd5b50610147610256366004610cb5565b6103c6565b348015610266575f5ffd5b50610147610275366004610d31565b6106ce565b610147610288366004610d6c565b61070b565b5f6102996002836108c3565b92915050565b60606102ab60026108d5565b905090565b6102b86108e1565b5f6102c360026108d5565b80519091505f5b81811015610371575f8382815181106102e5576102e5610db9565b6020908102919091018101515f8181526005909252604090912080546001820154929350909161010090910460ff16906001600160f81b0316811561035d5761035d61033460ff841683610de1565b6001600160f81b031661034e5f546001600160a01b031690565b6001600160a01b03169061090d565b5050805461ff0019169055506001016102ca565b5061037c600261099f565b6040517fb6631be8178caeae66f3ccda7376275f63ea9d047cf74353490b7f1a2d62ddb5905f90a15050565b6103b06108e1565b6103b95f6109a8565b565b5f6102ab60026109f7565b6103d1600285610a00565b6104195760405162461bcd60e51b81526020600482015260146024820152734368616c6c656e6765206e6f742061637469766560601b60448201526064015b60405180910390fd5b5f8381526006602052604090205460ff161561046f5760405162461bcd60e51b8152602060048201526015602482015274139d5b1a599a595c88185b1c9958591e481d5cd959605a1b6044820152606401610410565b5f848152600560209081526040808320805460018201548351600380825260808201909552929560ff909216946001600160f81b03909116939192919082016060803683370190505090508260ff165f1b815f815181106104d2576104d2610db9565b602002602001018181525050608087901c816001815181106104f6576104f6610db9565b602090810291909101015280516fffffffffffffffffffffffffffffffff8816908290600290811061052a5761052a610db9565b6020908102919091010152600154604051633a94343960e21b81525f916001600160a01b03169063ea50d0e490610569908a908a908790600401610e12565b602060405180830381865afa158015610584573d5f5f3e3d5ffd5b505050506040513d601f19601f820116820180604052508101906105a89190610e8a565b9050806105e75760405162461bcd60e51b815260206004820152600d60248201526c24b73b30b634b210383937b7b360991b6044820152606401610410565b6105fa336001600160f81b03851661090d565b84545f90869060019061061490610100900460ff16610ea9565b825460ff9182166101009390930a83810292021916179091555f8a81526006602052604090819020805460ff19166001179055519091508a907f7d4d4d21b8214da989b3f44abdffb0cc5914aa5cc5dbc04b17aefd9b981a0d1b9061067c9084815260200190565b60405180910390a2805f036106c25761069660028b610a17565b506040518a907fc61ef8151923bbd8dc5f723ba25f26bb805ef4f9a52c5811df7242872edd2e0b905f90a25b50505050505050505050565b6106d66108e1565b6001600160a01b0381166106ff57604051631e4fbdf760e01b81525f6004820152602401610410565b610708816109a8565b50565b6107136108e1565b5f8360ff1611801561072d57505f826001600160f81b0316115b801561073b57505f8160ff16115b6107985760405162461bcd60e51b815260206004820152602860248201527f416c6c20706172616d6574657273206d7573742062652067726561746572207460448201526768616e207a65726f60c01b6064820152608401610410565b6107a560ff821683610de1565b6001600160f81b031634146107fc5760405162461bcd60e51b815260206004820181905260248201527f496e636f72726563742045746865722073656e7420666f7220726577617264736044820152606401610410565b600480545f918261080c83610ec4565b90915550905061081d600282610a22565b506040805160608101825260ff808716825284811660208084019182526001600160f81b038089168587019081525f888152600590935286832095518654945186166101000261ffff19909516951694909417929092178455915160019093018054939091166001600160f81b031990931692909217909155905182917f3b287e7d3c96c0b7ee9417f0927b09c96114cda2b148352c7ca59f166f407c8f91a250505050565b5f6108ce8383610a2d565b9392505050565b60605f6108ce83610a53565b5f546001600160a01b031633146103b95760405163118cdaa760e01b8152336004820152602401610410565b804710156109375760405163cf47918160e01b815247600482015260248101829052604401610410565b5f5f836001600160a01b0316836040515f6040518083038185875af1925050503d805f8114610981576040519150601f19603f3d011682016040523d82523d5f602084013e610986565b606091505b5091509150816109995761099981610aac565b50505050565b61070881610ad4565b5f80546001600160a01b038381166001600160a01b0319831681178455604051919092169283917f8be0079c531659141344cd1fd0a4f28419497f9722a3daafe3b4186f6b6457e09190a35050565b5f610299825490565b5f81815260018301602052604081205415156108ce565b5f6108ce8383610b2d565b5f6108ce8383610c10565b5f825f018281548110610a4257610a42610db9565b905f5260205f200154905092915050565b6060815f01805480602002602001604051908101604052809291908181526020018280548015610aa057602002820191905f5260205f20905b815481526020019060010190808311610a8c575b50505050509050919050565b805115610abb57805160208201fd5b60405163d6bda27560e01b815260040160405180910390fd5b5f610add825490565b90505f5b81811015610b2657826001015f845f018381548110610b0257610b02610db9565b905f5260205f20015481526020019081526020015f205f9055806001019050610ae1565b50505f9055565b5f8181526001830160205260408120548015610c07575f610b4f600183610edc565b85549091505f90610b6290600190610edc565b9050808214610bc1575f865f018281548110610b8057610b80610db9565b905f5260205f200154905080875f018481548110610ba057610ba0610db9565b5f918252602080832090910192909255918252600188019052604090208390555b8554869080610bd257610bd2610eef565b600190038181905f5260205f20015f90559055856001015f8681526020019081526020015f205f905560019350505050610299565b5f915050610299565b5f818152600183016020526040812054610c5557508154600181810184555f848152602080822090930184905584548482528286019093526040902091909155610299565b505f610299565b5f60208284031215610c6c575f5ffd5b5035919050565b602080825282518282018190525f918401906040840190835b81811015610caa578351835260209384019390920191600101610c8c565b509095945050505050565b5f5f5f5f60608587031215610cc8575f5ffd5b8435935060208501359250604085013567ffffffffffffffff811115610cec575f5ffd5b8501601f81018713610cfc575f5ffd5b803567ffffffffffffffff811115610d12575f5ffd5b876020828401011115610d23575f5ffd5b949793965060200194505050565b5f60208284031215610d41575f5ffd5b81356001600160a01b03811681146108ce575f5ffd5b803560ff81168114610d67575f5ffd5b919050565b5f5f5f60608486031215610d7e575f5ffd5b610d8784610d57565b925060208401356001600160f81b0381168114610da2575f5ffd5b9150610db060408501610d57565b90509250925092565b634e487b7160e01b5f52603260045260245ffd5b634e487b7160e01b5f52601160045260245ffd5b6001600160f81b03818116838216818102909216918183048114821517610e0a57610e0a610dcd565b505092915050565b60408152826040820152828460608301375f606084830101525f601f19601f85011682016060810160608483030160208501528085518083526080840191506020870193505f92505b80831015610e7e5783518252602082019150602084019350600183019250610e5b565b50979650505050505050565b5f60208284031215610e9a575f5ffd5b815180151581146108ce575f5ffd5b5f60ff821680610ebb57610ebb610dcd565b5f190192915050565b5f60018201610ed557610ed5610dcd565b5060010190565b8181038181111561029957610299610dcd565b634e487b7160e01b5f52603160045260245ffdfea2646970667358221220b4d107bd6a7f4688ccd48fced444b448cd4b40c1a7bd77c639a9f0c88b92578264736f6c634300081c0033",
    "linkReferences": {}
  },
  "methodIdentifiers": {
    "addChallenge(uint8,uint248,uint8)": "f7bcdbe5",
    "challenge(uint256,bytes32,bytes)": "ab0ba5d4",
    "challengeInfo(uint256)": "8b293d2e",
    "getActiveChallengeId(uint256)": "05987cd1",
    "getActiveChallengeIds()": "0725ac00",
    "getActiveChallengeLength()": "933f1cad",
    "owner()": "8da5cb5b",
    "renounceOwnership()": "715018a6",
    "stopAllChallenges()": "413bc884",
    "transferOwnership(address)": "f2fde38b",
    "usedNulifiers(bytes32)": "6fa44a0f",
    "verifier()": "2b7ac3f3"
  },
  "id": 31
}