{
  "abi": [
    {
      "type": "constructor",
      "inputs": [
        {
          "name": "owner_",
          "type": "address",
          "internalType": "address"
        },
        {
          "name": "verifier_",
          "type": "address",
          "internalType": "address"
        }
      ],
      "stateMutability": "nonpayable"
    },
    {
      "type": "function",
      "name": "addChallenge",
      "inputs": [
        {
          "name": "leadingZeros",
          "type": "uint256",
          "internalType": "uint256"
        },
        {
          "name": "rewards",
          "type": "uint256",
          "internalType": "uint256"
        },
        {
          "name": "remainRewarders",
          "type": "uint256",
          "internalType": "uint256"
        }
      ],
      "outputs": [],
      "stateMutability": "payable"
    },
    {
      "type": "function",
      "name": "challenge",
      "inputs": [
        {
          "name": "challengeId",
          "type": "uint256",
          "internalType": "uint256"
        },
        {
          "name": "nulifier",
          "type": "bytes32",
          "internalType": "bytes32"
        },
        {
          "name": "proof",
          "type": "bytes",
          "internalType": "bytes"
        }
      ],
      "outputs": [],
      "stateMutability": "nonpayable"
    },
    {
      "type": "function",
      "name": "challengeInfo",
      "inputs": [
        {
          "name": "challengeId",
          "type": "uint256",
          "internalType": "uint256"
        }
      ],
      "outputs": [
        {
          "name": "leadingZeros",
          "type": "uint256",
          "internalType": "uint256"
        },
        {
          "name": "rewards",
          "type": "uint256",
          "internalType": "uint256"
        },
        {
          "name": "remainRewarders",
          "type": "uint256",
          "internalType": "uint256"
        }
      ],
      "stateMutability": "view"
    },
    {
      "type": "function",
      "name": "getActiveChallengeId",
      "inputs": [
        {
          "name": "index",
          "type": "uint256",
          "internalType": "uint256"
        }
      ],
      "outputs": [
        {
          "name": "",
          "type": "uint256",
          "internalType": "uint256"
        }
      ],
      "stateMutability": "view"
    },
    {
      "type": "function",
      "name": "getActiveChallengeIds",
      "inputs": [],
      "outputs": [
        {
          "name": "",
          "type": "uint256[]",
          "internalType": "uint256[]"
        }
      ],
      "stateMutability": "view"
    },
    {
      "type": "function",
      "name": "getActiveChallengeLength",
      "inputs": [],
      "outputs": [
        {
          "name": "",
          "type": "uint256",
          "internalType": "uint256"
        }
      ],
      "stateMutability": "view"
    },
    {
      "type": "function",
      "name": "owner",
      "inputs": [],
      "outputs": [
        {
          "name": "",
          "type": "address",
          "internalType": "address"
        }
      ],
      "stateMutability": "view"
    },
    {
      "type": "function",
      "name": "renounceOwnership",
      "inputs": [],
      "outputs": [],
      "stateMutability": "nonpayable"
    },
    {
      "type": "function",
      "name": "stopAllChallenges",
      "inputs": [],
      "outputs": [],
      "stateMutability": "nonpayable"
    },
    {
      "type": "function",
      "name": "transferOwnership",
      "inputs": [
        {
          "name": "newOwner",
          "type": "address",
          "internalType": "address"
        }
      ],
      "outputs": [],
      "stateMutability": "nonpayable"
    },
    {
      "type": "function",
      "name": "usedNulifiers",
      "inputs": [
        {
          "name": "nulifier",
          "type": "bytes32",
          "internalType": "bytes32"
        }
      ],
      "outputs": [
        {
          "name": "",
          "type": "bool",
          "internalType": "bool"
        }
      ],
      "stateMutability": "view"
    },
    {
      "type": "function",
      "name": "verifier",
      "inputs": [],
      "outputs": [
        {
          "name": "",
          "type": "address",
          "internalType": "contract IVerifier"
        }
      ],
      "stateMutability": "view"
    },
    {
      "type": "event",
      "name": "AllChallengesStopped",
      "inputs": [],
      "anonymous": false
    },
    {
      "type": "event",
      "name": "ChallengeCompleted",
      "inputs": [
        {
          "name": "challengeId",
          "type": "uint256",
          "indexed": true,
          "internalType": "uint256"
        }
      ],
      "anonymous": false
    },
    {
      "type": "event",
      "name": "ChallengeSolved",
      "inputs": [
        {
          "name": "challengeId",
          "type": "uint256",
          "indexed": true,
          "internalType": "uint256"
        },
        {
          "name": "remainRewarders",
          "type": "uint256",
          "indexed": false,
          "internalType": "uint256"
        }
      ],
      "anonymous": false
    },
    {
      "type": "event",
      "name": "NewChallengeAdded",
      "inputs": [
        {
          "name": "challengeId",
          "type": "uint256",
          "indexed": true,
          "internalType": "uint256"
        }
      ],
      "anonymous": false
    },
    {
      "type": "event",
      "name": "OwnershipTransferred",
      "inputs": [
        {
          "name": "previousOwner",
          "type": "address",
          "indexed": true,
          "internalType": "address"
        },
        {
          "name": "newOwner",
          "type": "address",
          "indexed": true,
          "internalType": "address"
        }
      ],
      "anonymous": false
    },
    {
      "type": "error",
      "name": "FailedCall",
      "inputs": []
    },
    {
      "type": "error",
      "name": "InsufficientBalance",
      "inputs": [
        {
          "name": "balance",
          "type": "uint256",
          "internalType": "uint256"
        },
        {
          "name": "needed",
          "type": "uint256",
          "internalType": "uint256"
        }
      ]
    },
    {
      "type": "error",
      "name": "OwnableInvalidOwner",
      "inputs": [
        {
          "name": "owner",
          "type": "address",
          "internalType": "address"
        }
      ]
    },
    {
      "type": "error",
      "name": "OwnableUnauthorizedAccount",
      "inputs": [
        {
          "name": "account",
          "type": "address",
          "internalType": "address"
        }
      ]
    }
  ],
  "bytecode": {
    "object": "0x608060405234801561000f575f5ffd5b50604051610ec8380380610ec883398101604081905261002e916100f6565b816001600160a01b03811661005c57604051631e4fbdf760e01b81525f600482015260240160405180910390fd5b6100658161008c565b50600180546001600160a01b0319166001600160a01b039290921691909117905550610127565b5f80546001600160a01b038381166001600160a01b0319831681178455604051919092169283917f8be0079c531659141344cd1fd0a4f28419497f9722a3daafe3b4186f6b6457e09190a35050565b80516001600160a01b03811681146100f1575f5ffd5b919050565b5f5f60408385031215610107575f5ffd5b610110836100db565b915061011e602084016100db565b90509250929050565b610d94806101345f395ff3fe6080604052600436106100a5575f3560e01c80638b293d2e116100625780638b293d2e1461019b5780638da5cb5b146101f0578063933f1cad1461020c578063ab0ba5d414610220578063e09762e01461023f578063f2fde38b14610252575f5ffd5b806305987cd1146100a95780630725ac00146100db5780632b7ac3f3146100fc578063413bc884146101335780636fa44a0f14610149578063715018a614610187575b5f5ffd5b3480156100b4575f5ffd5b506100c86100c3366004610b10565b610271565b6040519081526020015b60405180910390f35b3480156100e6575f5ffd5b506100ef610283565b6040516100d29190610b27565b348015610107575f5ffd5b5060015461011b906001600160a01b031681565b6040516001600160a01b0390911681526020016100d2565b34801561013e575f5ffd5b50610147610294565b005b348015610154575f5ffd5b50610177610163366004610b10565b60066020525f908152604090205460ff1681565b60405190151581526020016100d2565b348015610192575f5ffd5b50610147610354565b3480156101a6575f5ffd5b506101d56101b5366004610b10565b60056020525f908152604090208054600182015460029092015490919083565b604080519384526020840192909252908201526060016100d2565b3480156101fb575f5ffd5b505f546001600160a01b031661011b565b348015610217575f5ffd5b506100c8610367565b34801561022b575f5ffd5b5061014761023a366004610b69565b610372565b61014761024d366004610be5565b61063b565b34801561025d575f5ffd5b5061014761026c366004610c0e565b61079c565b5f61027d6002836107d9565b92915050565b606061028f60026107eb565b905090565b61029c6107f7565b5f6102a760026107eb565b80519091505f5b81811015610327575f8382815181106102c9576102c9610c34565b6020908102919091018101515f818152600590925260409091206002810154919250908015610316576103168183600101546103059190610c5c565b5f546001600160a01b031690610823565b505f600290910155506001016102ae565b506040517fb6631be8178caeae66f3ccda7376275f63ea9d047cf74353490b7f1a2d62ddb5905f90a15050565b61035c6107f7565b6103655f6108b5565b565b5f61028f6002610904565b61037d60028561090d565b6103c55760405162461bcd60e51b81526020600482015260146024820152734368616c6c656e6765206e6f742061637469766560601b60448201526064015b60405180910390fd5b5f8381526006602052604090205460ff161561041b5760405162461bcd60e51b8152602060048201526015602482015274139d5b1a599a595c88185b1c9958591e481d5cd959605a1b60448201526064016103bc565b5f848152600560205260408082208151600380825260808201909352909291816020016020820280368337505083548251929350918391505f9061046157610461610c34565b602002602001018181525050608085901c8160018151811061048557610485610c34565b602090810291909101015280516fffffffffffffffffffffffffffffffff861690829060029081106104b9576104b9610c34565b6020908102919091010152600154604051633a94343960e21b81525f916001600160a01b03169063ea50d0e4906104f890889088908790600401610c73565b602060405180830381865afa158015610513573d5f5f3e3d5ffd5b505050506040513d601f19601f820116820180604052508101906105379190610ceb565b9050806105765760405162461bcd60e51b815260206004820152600d60248201526c24b73b30b634b210383937b7b360991b60448201526064016103bc565b6001830154610586903390610823565b5f836002015f815461059790610d0a565b91829055505f8881526006602052604090819020805460ff191660011790555190915088907f7d4d4d21b8214da989b3f44abdffb0cc5914aa5cc5dbc04b17aefd9b981a0d1b906105eb9084815260200190565b60405180910390a2805f0361063157610605600289610924565b5060405188907fc61ef8151923bbd8dc5f723ba25f26bb805ef4f9a52c5811df7242872edd2e0b905f90a25b5050505050505050565b6106436107f7565b5f8311801561065157505f82115b801561065c57505f81115b6106b95760405162461bcd60e51b815260206004820152602860248201527f416c6c20706172616d6574657273206d7573742062652067726561746572207460448201526768616e207a65726f60c01b60648201526084016103bc565b6106c38183610c5c565b34146107115760405162461bcd60e51b815260206004820181905260248201527f496e636f72726563742045746865722073656e7420666f72207265776172647360448201526064016103bc565b600480545f918261072183610d1f565b90915550905061073260028261092f565b506040805160608101825285815260208082018681528284018681525f8681526005909352848320935184559051600184015551600290920191909155905182917f3b287e7d3c96c0b7ee9417f0927b09c96114cda2b148352c7ca59f166f407c8f91a250505050565b6107a46107f7565b6001600160a01b0381166107cd57604051631e4fbdf760e01b81525f60048201526024016103bc565b6107d6816108b5565b50565b5f6107e4838361093a565b9392505050565b60605f6107e483610960565b5f546001600160a01b031633146103655760405163118cdaa760e01b81523360048201526024016103bc565b8047101561084d5760405163cf47918160e01b8152476004820152602481018290526044016103bc565b5f5f836001600160a01b0316836040515f6040518083038185875af1925050503d805f8114610897576040519150601f19603f3d011682016040523d82523d5f602084013e61089c565b606091505b5091509150816108af576108af816109b9565b50505050565b5f80546001600160a01b038381166001600160a01b0319831681178455604051919092169283917f8be0079c531659141344cd1fd0a4f28419497f9722a3daafe3b4186f6b6457e09190a35050565b5f61027d825490565b5f81815260018301602052604081205415156107e4565b5f6107e483836109e1565b5f6107e48383610ac4565b5f825f01828154811061094f5761094f610c34565b905f5260205f200154905092915050565b6060815f018054806020026020016040519081016040528092919081815260200182805480156109ad57602002820191905f5260205f20905b815481526020019060010190808311610999575b50505050509050919050565b8051156109c857805160208201fd5b60405163d6bda27560e01b815260040160405180910390fd5b5f8181526001830160205260408120548015610abb575f610a03600183610d37565b85549091505f90610a1690600190610d37565b9050808214610a75575f865f018281548110610a3457610a34610c34565b905f5260205f200154905080875f018481548110610a5457610a54610c34565b5f918252602080832090910192909255918252600188019052604090208390555b8554869080610a8657610a86610d4a565b600190038181905f5260205f20015f90559055856001015f8681526020019081526020015f205f90556001935050505061027d565b5f91505061027d565b5f818152600183016020526040812054610b0957508154600181810184555f84815260208082209093018490558454848252828601909352604090209190915561027d565b505f61027d565b5f60208284031215610b20575f5ffd5b5035919050565b602080825282518282018190525f918401906040840190835b81811015610b5e578351835260209384019390920191600101610b40565b509095945050505050565b5f5f5f5f60608587031215610b7c575f5ffd5b8435935060208501359250604085013567ffffffffffffffff811115610ba0575f5ffd5b8501601f81018713610bb0575f5ffd5b803567ffffffffffffffff811115610bc6575f5ffd5b876020828401011115610bd7575f5ffd5b949793965060200194505050565b5f5f5f60608486031215610bf7575f5ffd5b505081359360208301359350604090920135919050565b5f60208284031215610c1e575f5ffd5b81356001600160a01b03811681146107e4575f5ffd5b634e487b7160e01b5f52603260045260245ffd5b634e487b7160e01b5f52601160045260245ffd5b808202811582820484141761027d5761027d610c48565b60408152826040820152828460608301375f606084830101525f601f19601f85011682016060810160608483030160208501528085518083526080840191506020870193505f92505b80831015610cdf5783518252602082019150602084019350600183019250610cbc565b50979650505050505050565b5f60208284031215610cfb575f5ffd5b815180151581146107e4575f5ffd5b5f81610d1857610d18610c48565b505f190190565b5f60018201610d3057610d30610c48565b5060010190565b8181038181111561027d5761027d610c48565b634e487b7160e01b5f52603160045260245ffdfea264697066735822122084d00d18dff69231d27217f1e8ec10f2210fd711794340b75f33ec177caed7e764736f6c634300081c0033",
    "linkReferences": {}
  },
  "methodIdentifiers": {
    "addChallenge(uint256,uint256,uint256)": "e09762e0",
    "challenge(uint256,bytes32,bytes)": "ab0ba5d4",
    "challengeInfo(uint256)": "8b293d2e",
    "getActiveChallengeId(uint256)": "05987cd1",
    "getActiveChallengeIds()": "0725ac00",
    "getActiveChallengeLength()": "933f1cad",
    "owner()": "8da5cb5b",
    "renounceOwnership()": "715018a6",
    "stopAllChallenges()": "413bc884",
    "transferOwnership(address)": "f2fde38b",
    "usedNulifiers(bytes32)": "6fa44a0f",
    "verifier()": "2b7ac3f3"
  },
  "id": 28
}